{
  "_format": "hh-sol-artifact-1",
  "contractName": "PaymentContract",
  "sourceName": "contracts/payment.sol",
  "abi": [
    {
      "inputs": [],
      "stateMutability": "nonpayable",
      "type": "constructor"
    },
    {
      "anonymous": false,
      "inputs": [
        {
          "indexed": true,
          "internalType": "address",
          "name": "payer",
          "type": "address"
        },
        {
          "indexed": true,
          "internalType": "address",
          "name": "token",
          "type": "address"
        },
        {
          "indexed": false,
          "internalType": "uint256",
          "name": "amount",
          "type": "uint256"
        },
        {
          "indexed": false,
          "internalType": "uint256",
          "name": "tokensSent",
          "type": "uint256"
        }
      ],
      "name": "FiatReceived",
      "type": "event"
    },
    {
      "anonymous": false,
      "inputs": [
        {
          "indexed": true,
          "internalType": "address",
          "name": "previousOwner",
          "type": "address"
        },
        {
          "indexed": true,
          "internalType": "address",
          "name": "newOwner",
          "type": "address"
        }
      ],
      "name": "OwnershipTransferred",
      "type": "event"
    },
    {
      "inputs": [
        {
          "internalType": "address",
          "name": "token",
          "type": "address"
        },
        {
          "internalType": "uint256",
          "name": "amount",
          "type": "uint256"
        }
      ],
      "name": "Buy",
      "outputs": [],
      "stateMutability": "nonpayable",
      "type": "function"
    },
    {
      "inputs": [
        {
          "internalType": "uint256",
          "name": "price",
          "type": "uint256"
        },
        {
          "internalType": "address",
          "name": "treasury",
          "type": "address"
        }
      ],
      "name": "SetConfig",
      "outputs": [],
      "stateMutability": "nonpayable",
      "type": "function"
    },
    {
      "inputs": [
        {
          "internalType": "address",
          "name": "trcyc",
          "type": "address"
        },
        {
          "internalType": "address",
          "name": "usdc",
          "type": "address"
        },
        {
          "internalType": "address",
          "name": "usdt",
          "type": "address"
        }
      ],
      "name": "SetTokenAddress",
      "outputs": [],
      "stateMutability": "nonpayable",
      "type": "function"
    },
    {
      "inputs": [],
      "name": "owner",
      "outputs": [
        {
          "internalType": "address",
          "name": "",
          "type": "address"
        }
      ],
      "stateMutability": "view",
      "type": "function"
    },
    {
      "inputs": [],
      "name": "renounceOwnership",
      "outputs": [],
      "stateMutability": "nonpayable",
      "type": "function"
    },
    {
      "inputs": [
        {
          "internalType": "address",
          "name": "newOwner",
          "type": "address"
        }
      ],
      "name": "transferOwnership",
      "outputs": [],
      "stateMutability": "nonpayable",
      "type": "function"
    }
  ],
  "bytecode": "0x608060405234801561001057600080fd5b5061001a336100aa565b621312d0600455600580546001600160a01b031990811673ca7f7606853a7d70386b1c854a9a77fc721959131790915560018054821673c566f4a74518b3a8cb74cbb84718e081687017ec17905560028054821673b97ef9ef8734c71904d8002f8b6bc66dd9c48a6e17905560038054909116739702230a8ea53601f5cd2dc00fdbc13d4df4a8c71790556100fa565b600080546001600160a01b038381166001600160a01b0319831681178455604051919092169283917f8be0079c531659141344cd1fd0a4f28419497f9722a3daafe3b4186f6b6457e09190a35050565b610daf806101096000396000f3fe608060405234801561001057600080fd5b50600436106100725760003560e01c8063e128431711610050578063e1284317146100c0578063e3d4187f146100d3578063f2fde38b146100e657600080fd5b8063715018a6146100775780638da5cb5b14610081578063bdab9f79146100ad575b600080fd5b61007f6100f9565b005b6000546040805173ffffffffffffffffffffffffffffffffffffffff9092168252519081900360200190f35b61007f6100bb366004610cb3565b61010d565b61007f6100ce366004610c10565b610161565b61007f6100e1366004610c52565b6101cd565b61007f6100f4366004610bef565b610a19565b610101610ad0565b61010b6000610b51565b565b610115610ad0565b600491909155600580547fffffffffffffffffffffffff00000000000000000000000000000000000000001673ffffffffffffffffffffffffffffffffffffffff909216919091179055565b610169610ad0565b6001805473ffffffffffffffffffffffffffffffffffffffff9485167fffffffffffffffffffffffff000000000000000000000000000000000000000091821617909155600280549385169382169390931790925560038054919093169116179055565b33610239576040517f08c379a000000000000000000000000000000000000000000000000000000000815260206004820152601660248201527f496e76616c69642073656e64657220616464726573730000000000000000000060448201526064015b60405180910390fd5b60025473ffffffffffffffffffffffffffffffffffffffff8381169116148061027c575060035473ffffffffffffffffffffffffffffffffffffffff8381169116145b6102e2576040517f08c379a000000000000000000000000000000000000000000000000000000000815260206004820152601a60248201527f496e76616c6964204669617420746f6b656e20616464726573730000000000006044820152606401610230565b6040517f70a082310000000000000000000000000000000000000000000000000000000081523360048201528290829073ffffffffffffffffffffffffffffffffffffffff8316906370a082319060240160206040518083038186803b15801561034b57600080fd5b505afa15801561035f573d6000803e3d6000fd5b505050506040513d601f19601f820116820180604052508101906103839190610c9b565b10156103eb576040517f08c379a000000000000000000000000000000000000000000000000000000000815260206004820152601f60248201527f496e73756666696369656e74204669617420746f6b656e2062616c616e6365006044820152606401610230565b6040517fdd62ed3e000000000000000000000000000000000000000000000000000000008152336004820152306024820152829073ffffffffffffffffffffffffffffffffffffffff83169063dd62ed3e9060440160206040518083038186803b15801561045857600080fd5b505afa15801561046c573d6000803e3d6000fd5b505050506040513d601f19601f820116820180604052508101906104909190610c9b565b101561051e576040517f08c379a000000000000000000000000000000000000000000000000000000000815260206004820152602b60248201527f496e73756666696369656e74204669617420746f6b656e20616c6c6f77616e6360448201527f65206f662053656e6465720000000000000000000000000000000000000000006064820152608401610230565b60006004548361052e9190610cde565b61054090670de0b6b3a7640000610d17565b6001546005546040517f70a0823100000000000000000000000000000000000000000000000000000000815273ffffffffffffffffffffffffffffffffffffffff918216600482015292935083929116906370a082319060240160206040518083038186803b1580156105b257600080fd5b505afa1580156105c6573d6000803e3d6000fd5b505050506040513d601f19601f820116820180604052508101906105ea9190610c9b565b1015610652576040517f08c379a000000000000000000000000000000000000000000000000000000000815260206004820152601a60248201527f496e73756666696369656e742054524359432062616c616e63650000000000006044820152606401610230565b6001546005546040517fdd62ed3e00000000000000000000000000000000000000000000000000000000815273ffffffffffffffffffffffffffffffffffffffff91821660048201523060248201528392919091169063dd62ed3e9060440160206040518083038186803b1580156106c957600080fd5b505afa1580156106dd573d6000803e3d6000fd5b505050506040513d601f19601f820116820180604052508101906107019190610c9b565b101561078f576040517f08c379a000000000000000000000000000000000000000000000000000000000815260206004820152602860248201527f496e73756666696369656e7420545243594320616c6c6f77616e6365206f662060448201527f54726561737572790000000000000000000000000000000000000000000000006064820152608401610230565b6005546040517f23b872dd00000000000000000000000000000000000000000000000000000000815233600482015273ffffffffffffffffffffffffffffffffffffffff918216602482015260448101859052908316906323b872dd90606401602060405180830381600087803b15801561080957600080fd5b505af115801561081d573d6000803e3d6000fd5b505050506040513d601f19601f820116820180604052508101906108419190610c7b565b6108a7576040517f08c379a000000000000000000000000000000000000000000000000000000000815260206004820152601460248201527f55534443207472616e73666572206661696c65640000000000000000000000006044820152606401610230565b6001546005546040517f23b872dd00000000000000000000000000000000000000000000000000000000815273ffffffffffffffffffffffffffffffffffffffff9182166004820152336024820152604481018490529116906323b872dd90606401602060405180830381600087803b15801561092357600080fd5b505af1158015610937573d6000803e3d6000fd5b505050506040513d601f19601f8201168201806040525081019061095b9190610c7b565b6109c1576040517f08c379a000000000000000000000000000000000000000000000000000000000815260206004820152601560248201527f5452435943207472616e73666572206661696c656400000000000000000000006044820152606401610230565b604080518481526020810183905273ffffffffffffffffffffffffffffffffffffffff84169133917e02cf037465ab5bf12c354532490fc020f3675894eb4e1161a9546269236653910160405180910390a350505050565b610a21610ad0565b73ffffffffffffffffffffffffffffffffffffffff8116610ac4576040517f08c379a000000000000000000000000000000000000000000000000000000000815260206004820152602660248201527f4f776e61626c653a206e6577206f776e657220697320746865207a65726f206160448201527f64647265737300000000000000000000000000000000000000000000000000006064820152608401610230565b610acd81610b51565b50565b60005473ffffffffffffffffffffffffffffffffffffffff16331461010b576040517f08c379a000000000000000000000000000000000000000000000000000000000815260206004820181905260248201527f4f776e61626c653a2063616c6c6572206973206e6f7420746865206f776e65726044820152606401610230565b6000805473ffffffffffffffffffffffffffffffffffffffff8381167fffffffffffffffffffffffff0000000000000000000000000000000000000000831681178455604051919092169283917f8be0079c531659141344cd1fd0a4f28419497f9722a3daafe3b4186f6b6457e09190a35050565b803573ffffffffffffffffffffffffffffffffffffffff81168114610bea57600080fd5b919050565b600060208284031215610c00578081fd5b610c0982610bc6565b9392505050565b600080600060608486031215610c24578182fd5b610c2d84610bc6565b9250610c3b60208501610bc6565b9150610c4960408501610bc6565b90509250925092565b60008060408385031215610c64578182fd5b610c6d83610bc6565b946020939093013593505050565b600060208284031215610c8c578081fd5b81518015158114610c09578182fd5b600060208284031215610cac578081fd5b5051919050565b60008060408385031215610cc5578182fd5b82359150610cd560208401610bc6565b90509250929050565b600082610d12577f4e487b710000000000000000000000000000000000000000000000000000000081526012600452602481fd5b500490565b6000817fffffffffffffffffffffffffffffffffffffffffffffffffffffffffffffffff0483118215151615610d74577f4e487b710000000000000000000000000000000000000000000000000000000081526011600452602481fd5b50029056fea26469706673582212203c73fe0a15b23e889462cf294f625e588d6d9434f1e5eac30ceb59256016e74c64736f6c63430008040033",
  "linkReferences": {},
  "deployedLinkReferences": {}
}